:020000040800F2
:10000000A80A0020996700089D6600089F660008FE
:10001000A1660008A3660008A566000800000000AD
:10002000000000000000000000000000A7660008BB
:10003000A966000800000000AB660008AD66000875
:10004000BD670008C1670008C5670008C9670008E8
:10005000CD670008D1670008D5670008D967000898
:10006000DD670008E1670008E5670008E967000848
:10007000ED670008F1670008F5670008F9670008F8
:10008000FD67000801680008B766000805680008F9
:10009000096800080D680008116800081568000864
:1000A000196800081D680008216800082568000814
:1000B000296800082D6800083168000835680008C4
:1000C000396800083D680008416800084568000874
:1000D000496800084D680008516800085568000824
:1000E000596800085D6800086168000865680008D4
:1000F000696800086D680008716800087568000884
:10010000796800087D680008816800088568000833
:10011000896800088D6800089168000895680008E3
:10012000B1660008996800089D680008A168000889
:10013000A5680008A9680008AD680008B168000853
:10014000B5680008B9680008BD680008C168000803
:10015000C5680008C9680008CD680008D1680008B3
:10016000D5680008D9680008DD680008E168000863
:10017000E5680008E9680008ED6800080000000074
:10018000F1680008F568000800F5E0700268914227
:1001900003D343681A44914202D380680028F5D102
:1001A00070471849086880B94FF4805048604FF490
:1001B00080324FF0FF30C86008610420124B8A6023
:1001C0004861C3F8BC01114808600120704701F183
:1001D000080313F0070F0EBF0023C3F1080303F059
:1001E00007031944D21A8161C26042F001034B60D7
:1001F000091D4FF0280C41F802C0024A1369C3617F
:100200007047000040060020900100206859883C9B
:100210002DE9F84F84B00646AFF30080F52E1E4D51
:1002200080F00F820B2E31BF10260B36F608F60039
:100230002868F408E04010F0030F4AD0C04300F0F3
:100240000100041905F1280000EBC408E700D8F804
:1002500008607068C008C000B84218BF01F0E2F939
:10026000D6F80890464508BF01F0DCF94E4508BFB6
:1002700001F0D8F97068C008C000B84218BF01F09A
:10028000D1F9C8450AD12868012101FA04F420EA0D
:1002900004042C6010E000BF900100202869814513
:1002A00008D3D9F80C10B14204D1C8F80890C9F8A5
:1002B0000C8001E001F0B6F947F00300311D7060D9
:1002C000301DCA5942F00102C25106F1080800F07F
:1002D00010BFA968B14280F09F83002800F0A2807F
:1002E0004FF0010808FA04F1490000FA04F448420A
:1002F00001430C4060420440641E200B00F01000DB
:10030000C440610901F00801CC40A20802F00402D7
:10031000D440630803F002030818DC401018C4F34B
:10032000400718183818FC40241805F1280000EB85
:10033000C40AE700DAF80890D9F80400C008C00041
:10034000B84218BF01F06EF9D9F808B0D14508BF1E
:1003500001F068F9D94508BF01F064F9D9F8040043
:10036000C008C000B84218BF01F05CF9DA4506D1F8
:10037000286808FA04F420EA04042C600DE02969D6
:100380008B4508D3DBF80C00484504D1CAF808B007
:10039000CBF80CA001E001F045F9BF1B46F00300CB
:1003A00009F10402C9F8040047F00101915109EB79
:1003B00006020192D751AC684FEAD40ABAF11F0F76
:1003C00088BF01F02FF934B3CDF800A005F1280063
:1003D0006E6900EBCA0AD346102C38BF01F022F92F
:1003E0002968009821FA00F2D30704D408FA00F033
:1003F0000843286007E0DAF80800296988422CBF22
:10040000834601F00FF9CAF80860CBF80C60C6F813
:1004100008B0C6F80CA0AF6009F10808019868613F
:1004200000F067BE6868002800F01783414208406A
:10043000401E010B01F01001C840420902F0080201
:10044000D040830803F00403D840440804F00204B9
:100450005118E0405918C0F34007611805F5987825
:100460007918F840401858F820104868C008C000B3
:100470008A46A0EB060B08E001464868C008C000A9
:10048000801B58453CBF83468A4608690028F3D143
:1004900049690029F1D128698245C0F0CF80DAF896
:1004A0000410C90806EB0B09C900494518BF01F043
:1004B000B9F80AEB06008245019080F0BF80DAF8B7
:1004C0000C40DAF8187054450DD0DAF808002969A4
:1004D000884223D3C268524504BFA16851451DD14B
:1004E000C460A0601CE00AF114010C6834B90AF180
:1004F00010010C68A4B101E011460C6804F114026B
:100500001068002802BF04F1100210680028F3D11F
:100510002869814202D300220A6001E001F082F8DA
:10052000002F34D0DAF81C0008EB800001688A45FF
:1005300009D1046094B9DAF81C006968012282408C
:100540009143696023E02869874205D339695145A1
:1005500014BF7C613C6101E001F064F8BCB1296921
:100560008C4212D3A761DAF8100028B1884226BF66
:100570002061846101F056F8DAF8140038B1296975
:10058000884202D36061846101E001F04BF8BBF165
:10059000100F0ED249F003000AF10401CAF804005A
:1005A0000AF1040051F8092042F0010240F8092044
:1005B0003EE046F003010AF10402CAF804104BF0D1
:1005C00001009051019941F80BB0A8680090C4084F
:1005D0001F2C88BF01F026F8009828B305F12800E9
:1005E00000996F6900EBC408C146102938BF01F0BB
:1005F00019F8286820FA04F1CA0705D4012101FA84
:1006000004F404432C6007E0D8F808002969884204
:100610002CBF814601F006F8C8F80870C9F80C70C4
:10062000C7F80890C7F80C80C5F808B00198686151
:100630001AF1080800F0F08100F05BBD00F0F2FF55
:10064000EAE116F1400F28BF4FF0FF3680F0E48159
:100650000B36F6086B68F600002B00F0DD810027F2
:10066000300AC6F1000908BF002423D0B0F5803F4E
:1006700028BF1F241ED2A0F58071090C01F00801CB
:100680008840A0F58052120C02F004029040A0F5C0
:100690008044240CC1F10E0104F00204891A091BE4
:1006A000A04001EBD031C81D26FA00F404F001048B
:1006B00004EB410405F5987858F8240030B31F2C5A
:1006C0000FBFB4464FEA540CCCF1190C06FA0CFCDF
:1006D000BE46494601E04FEA4C0C4268D208D200BF
:1006E000921B8A4202D2110007460CD04269103098
:1006F0004FEADC7950F82900002A1CBF8242964656
:100700000028E8D170468946A8BBB7BB012101FA91
:1007100004F4640060420443234000F07D815842A9
:1007200003405B1E180B00F01000C340590901F094
:100730000801CB409A0802F00402D3405C0804F0A0
:1007400002040818E3401018C3F3400C201860445A
:1007500023FA0CF31B1858F823000CE008464168F4
:10076000C908C900891B49453CBF8946074601693C
:100770000029F3D140690028F1D1002F00F04C810D
:10078000A868801B814580F0478129698F42FFF46A
:1007900055AF7868C008C00006EB0901884218BF51
:1007A00000F040FF07EB060B5F45BFF447AFFC6866
:1007B000D7F818A0BC420CD0B8682969884223D366
:1007C000C268BA4204BFA168B9421DD1C460A0602A
:1007D0001CE007F114010C6834B907F110010C6832
:1007E000A4B101E011460C6804F11402106800285D
:1007F00002BF04F1100210680028F3D12869814279
:1008000002D300220A6001E000F00CFFBAF1000FF1
:1008100034D0F86908EB800001688F4208D1046089
:10082000A4B9F8696968012282409143696025E0B2
:100830002869824508D3DAF81010B94214BFCAF803
:100840001440CAF8104001E000F0ECFEB4B1296990
:100850008C4211D3C4F818A0386928B1884226BF49
:100860002061846100F0DEFE786938B12969884230
:1008700002D36061846101E000F0D4FEB9F1100F91
:100880000CD2B14449F00300391D7860381D51F88D
:10089000092042F0010240F80920B9E046F00301C6
:1008A0003A1D796049F0010090514FEAD9004BF8A8
:1008B00009901F2822D805F1280101EBC0042968FE
:1008C00021FA00F2D307A04605D4012202FA00F073
:1008D0000843286006E0A068296988422CBF80464A
:1008E00000F0A0FEC4F808B007F10800C8F80CB08A
:1008F00040F8068007F10C018C5189E05FEA19206D
:1009000008BF002123D0B0F5803F28BF1F211ED291
:10091000A0F58072120C02F008029040A0F5805100
:10092000090C01F004018840A0F580431B0CC2F1C2
:100930000E0203F00203521AD21A984002EBD03290
:10094000D01D29FA00F101F0010101EB420107F18C
:100950001403CBF81C1000229A5107F1100308EB86
:1009600081009A516A6822FA01F3DC0711D401234D
:1009700003FA01F111436960C0F800B0CBF8180028
:1009800007F1080107F10C0040F806B041F806B085
:100990003EE002681F291DBF4908C1F1190109FA8B
:1009A00001F1494600E002465068C008C0004845D1
:1009B00018D002F11003C80F03EB80034900186838
:1009C0000028F0D12869834220D3C3F800B007F192
:1009D0000C01CBF8182041F806B007F1080040F8E8
:1009E00006B015E0296990688A4228BF88420DD375
:1009F000C0F80CB007F10801C2F808B0885107F13F
:100A00000C0082510022CBF8182001E000F00AFE11
:100A100017F1080840F06D83A868B0421DD3811B10
:100A20006A6910290AD390196861A96041F001032D
:100A30004360415046F0030656600BE00021A96078
:100A40006961131D40F003015160111D1C5844F0F1
:100A500001040C5002F108084BE3E8688642C0F03C
:100A60003883DFF8B89BD9F8000008B9FFF799FB85
:100A7000D9F8081088192F30491E20EA01018E424A
:100A800080F0358305F5D877B86838B13A688918A9
:100A90008A4280F02C838842C0F0298300F0E2FD76
:100AA00000281CBFD0F8008010F1010F00F01F8358
:100AB00039687A68414439608A4238BF7960AC69E4
:100AC00004BB296909B1884200D22861002138613C
:100AD000C7F81480F9614FF0FF31D9F800206A623D
:100AE000296205F128020021D260926002F1080417
:100AF00054611461891C10321F29F5D9A8F128020C
:100B000001461DE005F5E0710A46814600E0926865
:100B1000D2B11068536803449945F8D1107B03079C
:100B200012D413689C420FD3D2F804C063449C4291
:100B30000AD2C444C2F804C02146E86808EB0002A7
:100B40002846FFF744FBC1E22869814538BFC5F854
:100B5000109009EB080000E08968002900F0BD81D1
:100B60000A688242F8D1087B020700F1B681086862
:100B7000C1F800904A6842444A6009F1080111F046
:100B8000070F08BFCDF8049006D0C1F1080101F0AD
:100B9000070109EB0102019200F1080111F0070FB2
:100BA00004D0C1F1080101F0070108448046019812
:100BB000A8EB00018419A1EB060B274646F00306BB
:100BC0004660474528BF00F02DFD98F80400C10796
:100BD00058BF00F027FDBBF1100F38BF00F022FD19
:100BE000A869804508D1E9688B44C5F80CB0AF61AD
:100BF0004BF0010078606CE1686980450AD1A96812
:100C00008B44C5F808B06F614BF00100786047F87D
:100C10000BB05EE1D8F8040000F00301012940F0B8
:100C2000B880C008C000C1081F29039040D8D8F878
:100C300008200092D8F80C600291B04508BF00F07F
:100C4000F1FC0098804508BF00F0ECFCD8F80400E7
:100C50000299C008C000B0EBC10F18BF00F0E2FC61
:100C60000299009A05F1280000EBC100824208D0E9
:100C700011462A699142C0F08780CA68424540F017
:100C8000838000998E4206D102982A68012383400E
:100C90009A432A607AE0864205D029698E4273D34E
:100CA000B068404570D10098C6600099B1606DE0B1
:100CB000D8F818000090D8F80C6046450DD0D8F848
:100CC00008002969884223D3C268424504BFB1683D
:100CD00041451DD1C660B0601CE008F114010E68EA
:100CE00036B908F110010E68A6B101E011460E6890
:100CF00006F114021068002802BF06F11002106805
:100D00000028F3D12869814202D300220A6001E061
:100D100000F088FC0098002838D0D8F81C0005F5B1
:100D2000987101EB80000168884509D106609EB981
:100D3000D8F81C006968012282409143696025E06F
:100D400000982969884205D30169414514BF46616D
:100D5000066101E000F066FCC6B129698E4213D33A
:100D60000098B061D8F8100028B1884226BF3061E1
:100D7000866100F057FCD8F8140038B12969884220
:100D800002D37061866101E000F04CFC0399884455
:100D90008B44D8F8041049084900C8F804104BF0F7
:100DA000010078604FEADB0647F80BB01F2E22D80F
:100DB00005F1280000EBC604A146BBF1100F38BFB7
:100DC00000F030FC286820FA06F1CA0705D401219A
:100DD00001FA06F606432E6006E0A06829698842FB
:100DE0002CBF814600F01EFCA760C9F80C70C7F844
:100DF0000890FC606DE05FEA1B2008BF002123D053
:100E0000B0F5803F28BF1F211ED2A0F58072120CC2
:100E100002F008029040A0F58051090C01F0040195
:100E20008840A0F580431B0CC2F10E0203F00203C0
:100E3000521AD21A984002EBD032D01D2BFA00F190
:100E400001F0010101EB4201F961002305F59872FF
:100E50007B6102EB81003B616A6822FA01F3DE07E5
:100E600007D4012303FA01F1114369600760B861F7
:100E70001DE002681F291DBF4908C1F119010BFAC5
:100E800001F1594600E002465068C008C0005845CC
:100E900010D002F11003C80F03EB8003490018685B
:100EA0000028F0D12869834211D31F60BA61FF6026
:100EB000BC600EE0296990688A4228BF884206D348
:100EC000C7609460B860FA600020B86101E000F08B
:100ED000A9FB019800F108080BE121462846FFF71D
:100EE00053F90168406808440090A0F1270111F00F
:100EF000070000980EBF0021C1F1080101F00701B1
:100F00000844A0F12F0B04F110018B4538BFA34614
:100F10000BF11802002102920191A8F12802494622
:100F20002846FFF754F90BF1080010F0070F18BF1F
:100F300000F078FB1B20CBF8040005F5E07292E886
:100F400009500BF1080181E8095000210BF108005C
:100F5000F961B861009A02980199C7F81090C7F832
:100F60001480072300E0001D491C00F10807974288
:100F70004360F8D30129D8BF00F054FBA34500F02B
:100F8000A580ABEB040B201D221D50F80B10490867
:100F9000490042F80B104BF0010060604FEADB099A
:100FA00044F80BB0B9F11F0F22D805F1280000EB6F
:100FB000C907B846BBF1100F38BF00F033FB2868F3
:100FC00020FA09F1CA0705D4012101FA09F1084301
:100FD000286006E0B868296988422CBF804600F086
:100FE00021FBBC60C8F80C40C4F80880E7606DE0E5
:100FF0005FEA1B2008BF002123D0B0F5803F28BF47
:101000001F211ED2A0F58072120C02F0080290403F
:10101000A0F58051090C01F004018840A0F580433F
:101020001B0CC2F10E0203F00203521AD21A9840AE
:1010300002EBD032D01D2BFA00F101F0010101EBDF
:10104000420105F59872002302EB8100E1616361C2
:1010500023616A6822FA01F3DF0707D4012303FA48
:1010600001F1114369600460A0611DE002681F295D
:101070001DBF4908C1F119010BFA01F1594600E001
:1010800002465068C008C000584510D002F1100355
:10109000C80F03EB8003490018680028F0D12869C5
:1010A000834211D31C60A261E460A4600EE0296950
:1010B00090688A4228BF884206D3C4609460A060CA
:1010C000E2600020A06101E000F0ACFAE86886422E
:1010D0000DD2801BA969E8608A19AA6140F001005D
:1010E000506046F003064E6001F1080801E04FF041
:1010F0000008AFF30080404605B0BDE8F08F00283F
:1011000000D170472DE9F047A0F10805AFF300804A
:10111000DFF80C6531698D42C0F07A82686800F0B2
:101120000302012A00F07482C2084FEAC209C20712
:1011300005EB090839D42C6810F0030F00F06A821F
:10114000604205448D42A144C0F0628270698542CC
:1011500000F0DA80E408202C72D2D5F80CA0AF6839
:10116000554508BF00F05EFABD4208BF00F05AFACC
:101170006868C008C000B0EBC40F18BF00F052FA96
:1011800006F1280000EBC400874205D031698F4288
:1011900053D3FA68AA4250D1BA4540D130680121F0
:1011A00001FA04F420EA04043460454580F03082FA
:1011B000D8F80440E00740F12B82A10700F17C81C0
:1011C000B069804540F0B380F168B5618944C6F8E4
:1011D0000C9049F00100686071698D4202D10020D5
:1011E0007061B060F169494580F01482DFF82C2409
:1011F000106808B9FEF7D5FFB169002900F00A822E
:10120000F068292824BF3046FEF7BEFFF069F16878
:10121000884280F0FF814FF0FF30F061FAE18245B3
:1012200006D03069824508D3DAF80810A94204D103
:10123000C7F80CA0CAF80870B7E700F0F3F9B4E7F4
:10124000EC68AF69AC420BD0A868884222D3C16871
:10125000A94204BFA268AA421CD1C460A0601BE0DE
:1012600005F11402146834B905F1100214689CB138
:1012700001E01A46146804F114031868002802BF3C
:1012800004F1100318680028F3D18A4202D3002128
:10129000116001E000F0C6F9002F86D0E96906F57B
:1012A000987000EB81000268954209D1046020002B
:1012B00011D1E8697168012282409143716074E73D
:1012C0003069874205D33969A94214BF7C613C610A
:1012D00001E000F0A7F9002C3FF467AF31698C42C0
:1012E000ABD3A761286928B1884226BF20618461F9
:1012F00000F098F9686900283FF457AF31698842D7
:101300009BD36061846150E798F8040000F003000B
:1013100003287FF44AAFC6F8089049F00101D8F8D5
:10132000040040084000C8F8040069600AE07069E1
:1013300080450AD1B16875618944C6F8089049F0C2
:101340000100686045F8099064E1E408E400A14404
:10135000E408202C3AD2D8F80CA0D8F80870D04570
:1013600008BF00F05FF9B84508BF00F05BF9D8F896
:101370000400C008C000B0EBC40F18BF00F052F961
:1013800006F1280000EBC400874207D031698F4284
:10139000C0F08580FA68424540F08180BA4507D1A7
:1013A0003068012101FA04F420EA0404346078E092
:1013B000824506D03069824571D3DAF8081041457C
:1013C0006DD1C7F80CA0CAF808706AE0D8F80C40D4
:1013D000D8F8187044450DD0D8F808003169884213
:1013E00023D3C268424504BFA16841451DD1C460F2
:1013F000A0601CE008F114010C6834B908F1100178
:101400000C68A4B101E011460C6804F114021068E4
:10141000002802BF04F1100210680028F3D13069DF
:10142000814202D300220A6001E000F0FBF8002FA5
:1014300037D0D8F81C1006F5987000EB81000268D0
:1014400090450AD10460200012D1D8F81C007168C0
:10145000012282409143716023E03069874205D3C5
:101460003969414514BF7C613C6101E000F0DAF864
:10147000BCB131698C4212D3A761D8F8100028B1F1
:10148000884226BF2061846100F0CCF8D8F81400AF
:1014900038B13169884202D36061846101E000F0B3
:1014A000C1F849F00100686045F8099071698D4202
:1014B0000BD1C6F80890ADE064086400C8F8044099
:1014C00049F00100686045F809904FEAD907202FDC
:1014D00022D206F1280000EBC704A046B9F1100F94
:1014E00038BF00F09FF8306820FA07F1CA0705D42A
:1014F000012101FA07F70743376006E0A068316968
:1015000088422CBF804600F08DF8A560C8F80C50CA
:10151000C5F80880EC607DE05FEA192008BF002173
:1015200023D0B0F5803F28BF1F211ED2A0F58072C6
:10153000120C02F008029040A0F58051090C01F055
:1015400004018840A0F580431B0CC2F10E0203F099
:101550000203521AD21A984002EBD032D01D29FA57
:1015600000F101F0010101EB420106F59872002340
:1015700002EB8100E9616B612B61726822FA01F371
:10158000DC0707D4012303FA01F111437160056000
:10159000A8611DE002681F291DBF4908C1F119019A
:1015A00009FA01F1494600E002465068C008C0004F
:1015B000484510D002F11003C80F03EB8003490027
:1015C00018680028F0D13069834211D31D60AA61E8
:1015D000ED60AD600EE0316990688A4228BF8842B4
:1015E00006D3C5609560A860EA600020A86101E0AC
:1015F00000F018F8306A401E30620BD1D6F8C801EE
:1016000000E080680028FCD14FF0FF30306201E03C
:1016100000F008F8AFF30080BDE8F0874006002036
:1016200090010020012000F033B830B4002513E011
:1016300050F8042BD30744BFA9F101039A18091FDE
:10164000042942F8045BFAD213468C0744BF158084
:101650009B1CC90748BF1D7050F8041B0029E7D127
:1016600030BC70470749086808B100207047064839
:10167000C008C00008600549C908C900091A01600E
:10168000704700BF94060020AF0A0020A80C00207D
:1016900080B500F007F8024A11001820ABBEFBE746
:1016A0002600020010B500F052F802000023DB43D0
:1016B00000241068984203D011000220ABBE1460D1
:1016C0005068984203D0111D0220ABBE546010BD7B
:1016D000F0B583B0040000F03AF8A10047183D6867
:1016E0000026F643B54216D100F01AF83D68B5421F
:1016F0000FD100BF09A00090002C01D1002000E014
:10170000042001900320029069460120ABBE050031
:101710003D6000F014F8280003B0F0BD3A74740086
:101720000C480121BFF35F8FD0E84F3FC0E8421F54
:10173000002AF9D1BFF35F8F002BF3D17047054822
:10174000BFF35F8F00210170BFF35F8F70470248C6
:1017500070470000A0060020880100202DE9F14F0D
:10176000B2B09946924600230691CDE900333C9AE7
:101770000F930DF14A0114914A7011E0329E5746C1
:101780002C4617F8011B0698B0470028069000F079
:1017900026810F98401C641E0F90F2D13296AA4405
:1017A0009AF80000252808D10021002209910A9208
:1017B0000B910C920D910E920FE06A464FF0FF31A3
:1017C000504601F071F8050002D10F9800F066BE96
:1017D000D4D50125E3E741F001011AF8010F2028D3
:1017E000F9D023280CD02B2804D02D2805D0302860
:1017F00009D00BE041F00201EFE741F00401ECE712
:1018000041F00801E9E741F01001E6E72A280FD18D
:10181000D9F8002052F8040BC9F8002000281190D4
:1018200003D54042119041F004010AF1010A14E08D
:101830001192DFF8EC3B0AE01198984205DA00EBD0
:10184000800402EB4402303A11920AF1010A9AF83C
:101850000020A2F130000A28EED39AF800002E28CA
:1018600003D04FF0FF32109229E01AF8010F2A2816
:1018700009D1D9F8000050F8042BC9F800001092E3
:101880000AF1010A1BE02D280CBF0AF1010A002011
:1018900000221092DFF8882B0BE040B9109B934296
:1018A00005DA03EB830504EB4504303C10940AF1A0
:1018B000010A9AF80040A4F130030A2BEDD3ADF8E9
:1018C00048100FF660309AF8001000F0F7FF08B1EA
:1018D0001AF8010B8DF84A009DF84A00682805D1D6
:1018E0009AF8000068280CD1622106E06C2804BF39
:1018F0009AF800006C2804D171218DF84A100AF181
:10190000010A1FA808901AF801BBBBF125012DD0D0
:101910001C3900F06181091F022940F25D810E39F6
:101920002AD0491F00F0B384093900F05581891E7F
:1019300000F04985491E00F0F584491E022940F255
:101940004B81091F00F0EE84491F00F0BA80491E48
:1019500000F09D84491E65D0C91E21D0891E00F06B
:101960009684C91E00F0938400F04CBD25238DF8A9
:101970007C30012109912AE06C208DF84A00D9F8C9
:10198000000050F8042BC9F80000002A43D1149934
:10199000487800283DD04FF0FF340FF6902012E039
:1019A0009DF84A006C28EAD0D9F8000050F8044BA2
:1019B000C9F800000794D4B91499487898B14FF049
:1019C000FF340FF6842000F085FF201A07D13298EB
:1019D0001FAA04A900F065FD00287FF5E1AE4FF0D5
:1019E000FF3000F05BBD0FF67C200790EFE7109D05
:1019F000002D04D5204600F08DFF044607E02A465E
:101A0000204600F0A3FF002814BF041B2C460A94B4
:101A1000DDE70FF65422329804A900F0C8FD002833
:101A2000D5D5DCE7D9F8001051F8040BC9F800103F
:101A300020F00004002121F0FF351FABCDE9044563
:101A40000793DDE9042308993C2413B90AB91098D7
:101A500098B102F00F053035641EEEB23A2EA8BFE1
:101A60002735120942EA03721B090D5508BF002AE7
:101A700003D007980D19A842EBD308190790C4F1B9
:101A80003C0210980A92824209DABDF84810821A84
:101A90004FF6EF7001400C92ADF8481097E7002820
:101AA00095D59DF8480000F0140010288FD1119BA7
:101AB00009990C985B1A1B1A9A1A002A87DD0C9256
:101AC00085E71499487820B14FF0FF340FF69C1049
:101AD00079E79DF84A00622862D0682819D06A2800
:101AE00040D06C2806D071284DD074282DD07A288B
:101AF0001ED064E0D9F8001051F8040BC9F80010AA
:101B000020B94FF0FF340FF67C105CE70F990160AD
:101B10005DE7D9F8001051F8040BC9F8001020B99E
:101B20004FF0FF340FF65C104DE70F9901804EE740
:101B3000D9F8001051F8040BC9F800100028E5D1BD
:101B40004FF0FF340FF63C103DE7D9F8001051F884
:101B5000040BC9F800100028D8D14FF0FF340FF65D
:101B6000241030E7D9F8001051F8040BC9F8001020
:101B700020B94FF0FF340FF60C1024E70F9AD3175B
:101B8000C0E9002323E7D9F8001051F8040BC9F885
:101B900000100028F2D14FF0FF340FF6E80012E7F2
:101BA000D9F8001051F8040BC9F8001020B94FF013
:101BB000FF340FF6D00006E70F99017007E7D9F858
:101BC000001051F8040BC9F8001000289ED14FF006
:101BD000FF340FF6B000F6E6D9F80020D21D22F04F
:101BE0000702C9F80020D2E900010832C9F8002034
:101BF000CDE90401C80F02D009982D210AE0BDF8F3
:101C00004800810702D509982B2103E0C00705D5BC
:101C1000099820211FAA1154401C0990DDE90423D2
:101C200009991FA8CDE92E2308444BF02001612912
:101C3000079015AC0BD01099002902D50621109100
:101C400005E001BF4BF02001672901221092DDE978
:101C5000042359004915491C10D11A030ED0ABF1C9
:101C6000610503211A2D0A9102D20FF6A43101E079
:101C70000FF6A031032200F095FEA8E659004915A1
:101C8000491C0AD11A0308D1ABF1610503211A2DB1
:101C90000A9116D30FF68431ECE7DDE90401CDE9B2
:101CA0003001DDE9302323F00047B7F5801F22F033
:101CB00000060DD20022002F08BF002E029203D191
:101CC00016E00FF65431D5E702AA00F0BFFE0FE090
:101CD000DFF8EC0ADFF8EC1A00EB17500290DDE9B0
:101CE00030234FF0FF301940DFF8DC7A10403943E1
:101CF000CDE904014BF0200061280DD10798302177
:101D00000170821CBBF1610F07920CBF7821582132
:101D100041700998801C0990DDE9040120F000025F
:101D200031F0004308BF002A02D10026002571E1EE
:101D30004BF02008B8F1610F40F0BE8010980028E9
:101D400047BF21210391401C0390039FDDE92E0131
:101D50007F1C00220023DDE9044500F0AFFE02995C
:101D60008DF8542038BF85F00045091F002F0291DF
:101D70000DF155065DDDDFF8541ACDE9302140F252
:101D8000FF732E93204629460022002300F0AEFE6A
:101D90004FD24800400D00F11C0215D0002A13DD7F
:101DA0002E9B9A420ADBDDE9300121F0004205F06A
:101DB00000400243DDE93001114611E06FF31E518E
:101DC00041EA025120460BE024F0000035F00041CA
:101DD00008BF00280FBF29461C22294600F09EFE9E
:101DE00004460D4600F038FFFF1F002F804609DD36
:101DF00000F050FF02460B462046294600F05CFFEB
:101E000004460D46F01D0721B8F1000F0CDD491EF8
:101E10005EBF08F00F0200F8012D4FEA2818F3D535
:101E200002E0002200F8012D491EFAD5C61D002F40
:101E3000A8DC0DF15500361A03988642D8BF30460B
:101E400000280DF1550430D4B04206DA0DF15501E9
:101E50000A5C082AA8BF0F2100DA0021024615AB50
:101E6000134400E0401E13F80159521E8D42F9D070
:101E70000F2904D10DF155018B5C5B1C8B54002A9A
:101E800004D50299091D15AC401C0291411E0CD4C9
:101E90006218ABF13A0613783033DDB23A2DA8BFA1
:101EA000F318491E02F80139F5D51099002940F1BF
:101EB000AF80421E1092ABE00299DFF8142947F27E
:101EC0009750414391FBF2F2DDE92E45029225F055
:101ED0000045D2F1070204DD2046294600F04CFC03
:101EE0000BE052420020DFF8EC1800F045FC0246FF
:101EF0000B462046294600F051FF0446B8F1660F14
:101F0000109806BF029F0A3706273F18142FC8BF34
:101F1000142730208DF854000D460020DFF8B81843
:101F2000CDE92E010DF15506002F33DD204629465F
:101F300001F058F801460A4606F1080304200A2673
:101F4000B2FBF6F606EB860EA2EB4E02303203F839
:101F5000012C0A22B6FBF2F202EB820EA6EB4E0631
:101F60003036401E03F8026DE9D1083F002F03F11F
:101F70000806D9DD084601F049F802460B4620461E
:101F8000294600F099FEDDE92E2301F04DF80446C4
:101F90000D46CBE70DF15500361A0DF1550404E05E
:101FA0000298401E761E0290641C20783028F7D0DC
:101FB000B8F1660F02D10299491C04E0B8F1650F2F
:101FC0000CBF01210021109808188642B8BF701E6E
:101FD00000281DD4B04204DA215C3429C8BF39215D
:101FE00000DC30210246631E9D1800E0401E15F8FB
:101FF0000169521E8E42F9D0392902D1A15C491CD7
:10200000A154002A04D50299491C1C46401C029187
:102010000646029D00F04CFC406A0778DDF84080DF
:1020200030B2002802DC01260FF2F4744BF02000DD
:10203000662808BF6D1C16D0672846D128B210F15B
:10204000040F48DB404546DA9DF848006D1C010747
:1020500003D430B24045B8BF804628B2B8EB000880
:1020600048BF4FF000080FFA85FB07980A99BBF1AB
:10207000000F00F3B2804A1C0A9230234354B8F197
:10208000000F03DC9DF84800010704D50A98411CA5
:102090000A9107990F5418EB0B0FB8BFC8F1000550
:1020A0002DB268420D90A84432B29045B8BF464662
:1020B000079B0A9836B20B9632462146184400F028
:1020C00071FCA8EB06000E90CBE0BBF1610F17D1BD
:1020D0004FF0700B19E030B2404504DA9DF848101B
:1020E0000A0758BF8046B8F1010848BF4FF0000802
:1020F000BBF1670F14BF4FF0450B4FF0650B04E0C9
:10210000BBF1410F08BF4FF0500B0A98411C0A91D8
:10211000B8F1000F079914F8012B0A5403DC9DF85D
:10212000480001071AD50A98411C0A91B8F1000F1E
:1021300007990F5412DD761E30B2804507980A9B2E
:10214000B8BF464632B22146184400F02BFC0A992B
:1021500036B271180A91A8EB06000D9007980A99FB
:1021600008442AB2002A80F800B003D42B2242701F
:10217000811C04E02D2141701546811C6D42002018
:102180002EAA0A2409E02B4693FBF4F505EB8506FD
:10219000A3EB460302F8013B401C2DB2002DF2DCFC
:1021A000012806DC4BF02002652A04BF302201F82A
:1021B000012B00282EAA08D1302001F8010B06E0DF
:1021C000401E135C303301F8013B0028F8DC079A0D
:1021D0000A981044091A0B9143E0084431B22AB21C
:1021E000914219DA32B2214600F0DCFB0A9936B28C
:1021F0007118ABEB0606B8F1000F0A910D9603DCDF
:102200009DF84800020704D5079847540B99491CCC
:102210000B91CDF8388024E0214600F0C3FB0A98EA
:10222000761B5844B8F1000F0A9003DC9DF8481063
:102230000A0703D5411C0A9107990F5430B2804513
:1022400007980A9BB8BF464632B204EB0B0118440C
:1022500000F0A8FB0A9836B230180A90A8EB0600E6
:102260000D909DF8480000F0140010287FF4AFABEB
:10227000099A0A990D988A180B9982180E988A184B
:10228000821811988242BFF6A2AB821A17E49DF819
:102290004A00622808D068280ED06A2814D06C281A
:1022A0001FD0712810D01CE0D9F8001051F8040B91
:1022B000C9F80010C0B21AE0D9F8001051F8040BA8
:1022C000C9F8001080B212E0D9F80020D21D22F027
:1022D0000702C9F80020D2E900010832C9F800203D
:1022E00006E0D9F8001051F8040BC9F800100021DD
:1022F000CDE904019DF8480001075AD5DDE9042322
:10230000002B08BF002A54D04BF02000782850D171
:1023100009981FA930220A54401C431C099301F854
:1023200000B046E09DF84A00622808D068280ED028
:102330006A2814D06C281FD0712810D01CE0D9F85E
:10234000001051F8040BC9F8001040B21AE0D9F897
:10235000001051F8040BC9F8001000B212E0D9F8CF
:102360000020D21D22F00702C9F80020D2E90001A6
:102370000832C9F8002006E0D9F8001051F8040B23
:10238000C9F80010C117CDE90401002902D5099848
:102390002D210AE0BDF84800810702D509982B21BC
:1023A00003E0C00705D5099820211FAA1154401C3D
:1023B00009901FA809990144079104A8594600F003
:1023C00056F9FFF704BB9DF84A006C280BD0012199
:1023D0000991D9F8000050F8041BC9F800008DF8E5
:1023E0007C10FFF7F4BAD9F8000050F8041BC9F8C4
:1023F000000015914FF0FF3210920021169115AA9E
:10240000FFF709BB25210122BBF1000F8DF87C10DD
:1024100009923FF4DCAA8DF87DB00221FFF7AABA39
:10242000CBCCCC0C686A6C747A4C00007072696E0C
:1024300074665F733A2062616420256C7320617258
:1024400067756D656E7400007072696E74665F7397
:102450003A2062616420257320617267756D656E34
:102460007400000000000000000000007072696E3F
:1024700074665F733A20256E20646973616C6C6FBB
:10248000776564007072696E74663A2062616420D8
:10249000256E20617267756D656E740033B0BDE89E
:1024A000F08F2DE9FC410F46064690467A6B78691D
:1024B000396ABC6A121AB869521A796A121AF8692A
:1024C000521A121A97F83800141B41070FD4202013
:1024D000002C8DF800000ADD254601236A463946A6
:1024E000304600F07DF900285DD16D1EF5D17B6985
:1024F00042463946304600F073F9002853D1302067
:102500008DF800003D6A002D09DD01236A46394639
:10251000304600F065F9002845D16D1EF5D1BB6944
:10252000FA683946304600F05BF900283BD130208C
:102530008DF800007D6A002D08DD01236A463946CA
:10254000304600F04DF970BB6D1EF6D1F868B969E0
:10255000FB6942183946304600F042F918BB30207A
:102560008DF80000BD6A002D08DD01236A4639465A
:10257000304600F035F9B0B96D1EF6D197F8380045
:1025800041070DD52020002C8DF8000008DD012327
:102590006A463946304600F023F920B9641EF6D168
:1025A0000020BDE8F6814FF0FF30BDE8F6812DE94F
:1025B000F8470D46A3B02F6B002F8246904648BFC8
:1025C0006FF0004700F001FE696B401801AA00217E
:1025D000C2E90011812828BF4FF0FF3044D289465C
:1025E0001EE0A74230DB6869201881280BD3002148
:1025F000696303AA29465046FFF753FF5FEA0009C3
:1026000022D40020686103AB6E692246694698199E
:1026100000F0C8F9A6196E6158F8040BA0B13F1B71
:10262000002F11DDD8F8001001AA684600F03EF92D
:102630000446002C05D4D8F800000028D1D1641E2F
:10264000CFD54FF0FF390EE0B9F1000F504604D15D
:1026500003AA2946FFF725FF8146B9F1000F02D1F1
:10266000002068616863484624B0BDE8F0872DE922
:10267000FC4307466F293E6908BF082405D041F096
:102680002000782814BF0A2410243C25D7E9002311
:10269000642918BF69299046994605D1002B03D5B6
:1026A000D8F1000869EB4909B9F1000F08BFB8F18A
:1026B000000F0CD1386B50B9082C39D197F838007D
:1026C000010735D530203B2586F83B0030E08DF8FA
:1026D0000010404649462246E31700F07BFD3032A9
:1026E000D0B26D1E3A28019504DB9DF80000A0F1E0
:1026F00051018A187255404649462246E31700F0B8
:1027000069FD80465FEA010908BFB8F1000F03D0F8
:10271000F86871198842DCD3082C09D197F8380081
:10272000010705D5705D302802D06D1E3020705530
:10273000C5F13C02BA617119F960386B824208DA5E
:10274000821A3A624FF6EF70398F01403987BDE83F
:10275000F38300280ED597F8380000F014001028F5
:1027600008D17B6B7969386A5B1A1B1A9A1A002A9E
:10277000C8BF3A62BDE8F3832DE9D04306460F4651
:1027800014464FF00008DFF8549012E0E00707D538
:1027900042464B463046394600F046FC06460F4658
:1027A0004046494642464B4600F03EFC6410804697
:1027B0008946002CEAD130463946BDE8D083000076
:1027C00002FCFFFFFFFF0F800000E03F0000F07FF2
:1027D000A08601000000F03F84D79741000024400C
:1027E000F8B505460E4617461C4600205CB117F8A2
:1027F000011BB068A847B06030B1F06A401CF062BD
:102800000020641EF3D1F2BD4FF0FF30F2BD000096
:102810006E616E004E414E00696E6600494E460084
:102820003000B1F5807F02D34FF0FF307047017068
:10283000012070470078401E8041C043C00F7047A0
:102840001C48704770B45368D41801E05B1C491EE3
:10285000042B08DA00291FBF057804F8015B10F883
:10286000016B002EF2D1536070BC704738B514462E
:102870001D4661B1FFF7E6FF61686A6B204690472D
:102880006FF00102811A02D0491E01D001E003E07D
:1028900005E00021616032BD6FF0010032BD4FF0F4
:1028A000FF3032BDDA6B1047024BDFE7014BF9E72F
:1028B000014870474800002010000020C9B202788B
:1028C0008A421AB11CBF10F8012FF9E718BF002087
:1028D00070472E0080B500B906A005490B681BB1F2
:1028E00022220021984701E0FEF79CFE222002BD33
:1028F00098060020636F6E73747261696E7420684D
:10290000616E646C65723A20626164206D657373F8
:102910006167650000F10103810704D010F8011B15
:10292000820781B1FAD10268A2F10131914311F01D
:10293000803104BF50F8042FF6E709BAB1FA81F1EB
:1029400000EBD100401CC01A70474300C9B2830796
:1029500006D0521E22D310F8013B9942F7D11FE056
:10296000083A13D302F1040241EA012141EA01418C
:1029700050F8043B121F21BF4B40A3F1013C2CEA4D
:10298000030C1CF0803FF3D0C9B2001F083210F8CE
:10299000013B521E28BF91EA030FF8D818BF01204F
:1029A000401E704762B38B0708D0521E11F8013BDE
:1029B00000F8013B00F024808B07F6D1830740F03C
:1029C000208000BF103A07D330B4B1E83810103A75
:1029D000A0E83810F9D230BC530724BFB1E8081082
:1029E000A0E8081044BF51F8043B40F8043BD2076C
:1029F00024BF31F8022B20F8022B44BF0B78037060
:102A00007047121F17D35B0009D151F8043B20F81F
:102A1000023B1B0C121F20F8023BF6D20BE051F8D0
:102A2000043B00F8013B1B0A20F8023B1B0C121F61
:102A300000F8013BF3D238BF121D521E24BF11F81B
:102A4000013B00F8013BF8D87047000010B5144670
:102A500000F002F8226010BDC1F30A5343B14A00EE
:102A600012F5001F28D2A3F2FE32A1EB02517047EB
:102A700050EA410C20D001F0004C31EA0C01B1FACF
:102A800081F204BFB0FA80F3D2180B3AB2F12003FE
:102A90002CBF00FA03F1914041EA0C013EBFC2F1A4
:102AA000200C20FA0CF319439040524240F2FD33BF
:102AB000D21A01EB03517047002270474FF4001CFB
:102AC0001CEB410F94BF1CEB430F09E041EA030CE0
:102AD00050EA4C0C52EA0C0C03D2994208BF9042C7
:102AE000704714BF8B428242704700004FF4001CB5
:102AF0001CEB410F94BF1CEB430F09E041EA030CB0
:102B000050EA4C0C52EA0C0C03D28B4208BF8242B2
:102B1000704714BF9942904270470000124254D44B
:102B200040F2FF7C1CEA11530FD0634531D09B1853
:102B300063453CBF01EB0251704701F0004141EA9F
:102B40000C510020AFF30080704750EA410320D0C1
:102B500001F0004C91EA0C011CD0B1FA81F30B3B5F
:102B60009A420DD9D21A994051EA0C01C3F1200CB6
:102B700020FA0CFC61449840531C40F2FF7CD7E7DC
:102B8000914041EA0C01C2F1200C20FA0CF31943E8
:102B900090407047B0FA80F31533202BE0D3202A01
:102BA000EED3203A203B9A4209D9D21A00FA03F117
:102BB00041EA0C010020531C40F2FF7CB8E700FA08
:102BC00002F141EA0C0100207047524240F2FF7CC2
:102BD0001CEA11530DD06345DBD0B2EB030C3CBFB4
:102BE000A1EB025170470CF1010221EA035141F4BB
:102BF000801150EA410CCCD001F0004C352A27DC82
:102C000030B481EA0C01B2F1200309DAC2F12003E9
:102C1000044601FA03F5D0402843D1409C400CE023
:102C2000C3F12002450020FA03F418BF44F0010468
:102C300021FA03F091400C43002174F1004550F15A
:102C4000000051EB0C01244230BC7FF47BAF704795
:102C50006146002076E70000C1F30A5340F2FE32DD
:102C60009B1A14DDD3F120034FEAE17208DDC9029B
:102C700041EA505141F00040D84080185040704720
:102C800003F2E13010B1D24382F0004070470020DF
:102C900070470000C11768B14840401AB0FA80F28E
:102CA0009040D21CC907C2F5846241EA025202EB8D
:102CB000D02140057047000070B44FF0004591EA04
:102CC000030F40F10B836B40841A71EB030603D2B0
:102CD000001BB141121973414FF4001C1CEB410F52
:102CE00034BF7CEB430442E00C0DA4EB1356352EAD
:102CF0004FDC45EAC323DB0A45EAC121C912B6F11C
:102D000020050DDD63FA05F6EB4086EA0305124265
:102D100018BF45F00105C01851F100010CD213E0B5
:102D200062FA06F5F2405540F3415A40B340F34091
:102D30005A408018594107D349085FEA30005FEADA
:102D4000350528BF45F0010501F58011420875F1F0
:102D5000004250F1000041EB04514E0016F5001FF7
:102D600070BC38BF70470020090D090570471CEB87
:102D7000410F10D252EA43060BD0BCEB410F05D8ED
:102D80000C0DAB43661E342EB6DD02E0AB4380185B
:102D9000594170BC704770BC70470000F0B540F2FC
:102DA000FF7581EA030C0CF0004C15EA11541DBFAD
:102DB00015EA1357AC42AF42E5E0BC41C1F3130141
:102DC000C3F31303801A994143F4801304D2641EA1
:102DD0004000494180185941C90241EA5051B1FBB4
:102DE000F3F603FB1611A2FB0675D7EBC020A94131
:102DF00002D2761E80185941C90241EA5051B1FBF6
:102E0000F3FE03FB1E11A2FB0E75D7EBC020A941F8
:102E100003D2AEF1010E80185941890241EA905166
:102E2000760546EA8E2EB1FBF3F603FB1611A2FBE4
:102E30000675D7EB8020A94102D2761E8018594131
:102E4000C90241EA50514EEA060EB1FBF3F603FB0C
:102E50001611A2FB0675D7EBC020A94102D2761E3F
:102E600080185941C90241EA5051B1FBF3F703FB05
:102E70001711A2FB0735D3EBC020A94167F100076A
:102E80000CBF004247F0010766F3D5274FEA1E3119
:102E9000B80814F5806412DDBD0775F1004250EBEF
:102EA0000E5051EB045111F5801F5CBF41EA0C013B
:102EB000F0BD4CF07F6141F0E0410020F0BDBD0766
:102EC0006D0840EA0E5041F48011D4F10104B4F1D0
:102ED00020060ADAC4F120060200E04001FA06F3F7
:102EE000E1401843B24015430EE0342C13DCC6F128
:102EF000200445EA40056D0820FA06F2154321FA40
:102F000006F0A1400D43002175F1004250F1000090
:102F100051EB0C01F0BD00205FEA0C01F0BDCFB910
:102F200092185B41B3FA83F704BFB2FA82F6BF1975
:102F30000B3FB7F120062FBF02FA06F3BB40C7F1E3
:102F4000200622FA06F638BF3343BA401CB1E41912
:102F5000641E33E77F4231F00041B1FA81F404BFCF
:102F6000B0FA80F6A4190B3CB4F120062FBF00FA8A
:102F700006F1A140C4F1200620FA06F638BF31431D
:102F8000A0403C1B1AE7AC421ABF05EA1357AF42F8
:102F900012E050EA41061CBF52EA4306BFE750EA7E
:102FA0004107304661461CBF41EA0551F0BD52EA77
:102FB000430C08BFC143F0BD00204FF4001616EBD0
:102FC000410F98BF16EB430F08BF16EB410F24BF0C
:102FD000C14305E016EB430F0CBF61464CEA0551B7
:102FE000F0BD0000400D491840EA81200CD2490D87
:102FF000A1F58061491C40F0004005DBD1F11F01C3
:1030000054BFC840C017704700207047014648B100
:10301000B0FA80F18840C91CC1F58461090501EB53
:10302000D021400570470000B0B581EA030C0CF0D8
:10303000004C40F2FF7515EA11541DBF15EA1357F5
:10304000AC42AF4239E0E41923EA455343F480131C
:10305000C90241F0004141EA505EC7021100A7FBDE
:10306000020200284FF00000EEFB01204FF00001AB
:10307000E3FB072118BF42F001024018002149413B
:10308000E3FB0E01A4F580640F0302D2520040411D
:10309000494154F101046CDD470872F1004250F1DE
:1030A000000051EB0451A1F580115CBF41EA0C0115
:1030B000B0BD4CEA05510020B0BD05EA1357AC4243
:1030C00014BFAF4241E050EA410E1CBF52EA430E2A
:1030D00002E061460020B0BD24423C441BD15FEABF
:1030E000070EF6D0090302BF01460020AEF1140E10
:1030F000B1FA81F7AEEB070401FA07FE0C37C7F10E
:10310000200100FA07F7C8404EEA000E23EA4553B3
:1031100043F48013A2E733F00043B3FA83F704BF0C
:10312000B2FA82FE77440B3FE41BB7F1200E2FBFAB
:1031300002FA0EF3BB40C7F1200E22FA0EFE38BF92
:1031400043EA0E03BA40641C82E750EA410E14BF02
:1031500052EA430E6FF000014FF4001717EB430FD4
:103160008ABF194617EB410FB5E74CEA055100201D
:10317000B0BDD4F10104B4F120070FDAC4F1200787
:10318000520828BF42F0010210FA07F501FA07F7CA
:10319000E1BF2A43E0403843E1400FE0352C98DCA2
:1031A000C7F1200452EA400220FA07F218BF42F0A9
:1031B000010231FA07F0A1400A43002172F10042F6
:1031C00050F1000051EB0C01B0BD80B5FFF738FBAA
:1031D000006C02BDD3BBD9B1B2F5803F5BD2022AED
:1031E0001ED98C46B1FBF2F102FB11C31B0443EA6A
:1031F0001043B3FBF2FC02FB1C3380B240EA0343F2
:10320000B3FBF2F002FB103240EA0C40002370479F
:10321000022A05D98446B0FBF2F002FB10C27047C7
:103220004AB105D100F0010249085FEA3000704759
:1032300000220023704700F007B90B0002000021B4
:1032400000207047F7D3002200237047904271EBB3
:10325000030CF2D370B5B1FA81F4B3FA83F52C1BE9
:10326000A340C4F1200532FA05F63343A2405FF0D3
:103270000046E64002E05B085FEA3202841A71EB26
:10328000030524BF204629467641F4D302000B00F3
:103290003000002170BD70B5B1FA81F4B2FA82F548
:1032A000C4F120046419B4F12006DAD3B2405FF00F
:1032B0000044F440002502E052085FEA3303C61AD6
:1032C00071EB020E24BF3046714664416D41F3D369
:1032D00002000B002000290070BD0000841A71EB71
:1032E000030604D26E40001BB141121973414FF422
:1032F000001C1CEB410F34BF7CEB430683E00C0D3C
:10330000A4EB1356362E00F37C80012E45EAC3232E
:1033100041DC43EA525312BFD20292025B082405F9
:1033200045EAC12141EA5051D2EBC020994125D450
:1033300007D1B0FA80F610FA06F162D000202036EC
:1033400008E0B1FA81F6B140C6F1200220FA02F29B
:103350001143B0404FEAF474B4EB465434F0010624
:103360004FEA74040AD8D6F50016760D04F000442E
:10337000F04061FA06F25040F1404840C00A40EA8D
:10338000415021F0004128BF5FEA500550F1000094
:1033900044EBD12135E0DB0A45EAC121C90AB6F187
:1033A00020050EDD42EA0242120CC5F1200603FAA6
:1033B00006F6EB4042EA06056D42984161F10001D4
:1033C0000DE062FA06F5F240554063FA06FC82EA27
:1033D0000C02F3405A406D42904161EB030111F43D
:1033E000801F05D1641E620502D06D004041494135
:1033F00021F48011430875F1004350F1000041EBC6
:10340000045170BC70471CEB410F15D223F00043F0
:1034100052EA43060BD04FEA4C0CBCEB410F04D8E8
:103420000C0D661E342EB7DDEBE7801A994150EA89
:10343000410608BF0021E4E708BF1CEB430F28BF8B
:103440006FF00001DDE7000070470000F8B50400F0
:1034500025D004F13C05697821B900202870204668
:1034600000F00FFC242169702068026852085200A5
:1034700002602068016841F4004101602068026830
:1034800022F40042026000F083FC01466068DFF82D
:103490008824904205D2DFF88434994205D2012075
:1034A000F2BDDFF87C048142F9D32068DFF8743480
:1034B0004668B1FBF3F3B60943EA86164660266810
:1034C000376A6068904206D34FF4967043434FF4D6
:1034D0007A70B3FBF0F35B1CBF0943EA87133362D6
:1034E000491E2368DE696768974206D27F0000F0B4
:1034F00043F8042913D2042111E0A06820B907EB96
:10350000470700F039F805E01920474300F034F888
:1035100041F4804108050CBF012141F40041DFF86E
:10352000080406400E43DE6122681368E169206AE0
:1035300023F0C0030B43034313602268DFF8EC035E
:10354000936821690340E0680B430343936021685B
:10355000CA68A3696069120A034343EA0222CA6087
:103560002068016841F001010160002068602021AD
:1035700069702063A870F2BDB1FBF7F1491CC1F37B
:103580000B0170472DE9F84304460E46154600F03E
:1035900042FA04F13C0780467878202808D1CDF81B
:1035A000008019230122DFF8941300F053FA002859
:1035B0007AD13878012877D00121397000F033FAB8
:1035C00021207870102100F07DF92085DFF870034C
:1035D000E062E16A082918BF012904D081421CBFBA
:1035E000206B122801D100F02CFACDF800800022C7
:1035F000089D2B4600F02CFA0028206806D00168B0
:10360000CA054AD54FF40070786046E02169B1F5EB
:10361000804F08BF06F0FE0610D0F10901F0060148
:1036200041F0F001016143462A46DFF89813204635
:1036300000F05CFA002830D12068F6B206614346FB
:103640002A4600F01CFA002827D100F0E7F9896922
:103650000091009A208D002821D04246294600F092
:1036600018FAA8B900F022F9401E208521684A699D
:10367000530706D580B220B1606A02780A6100F073
:103680000BF942462946204600F09CFA0028E1D07A
:103690007868042801D100F0F5F9012005E000F078
:1036A000F1F900F024F900E00220BDE8F2832DE9F1
:1036B000F84F00F0EBF800F03BF902D100F024F9EC
:1036C000002840F0CA803878012800F0C68000F059
:1036D00015F901D400F094F900F001F91021B97046
:1036E00000207860C6F82490A6F82A80708D308576
:1036F000DFF84C02F062F16A32681368082943F47B
:10370000806318BF0129136004D081421CBF306B55
:10371000112801D100F0A1F900940022DDF82890D1
:103720004B464FF0011100F0D7F8002830684FF4F5
:10373000007A30D13169DFF8D482B1F5804F04D1FD
:1037400045F00105EDB205612FE0E90901F0060B36
:103750004BF0F001016123464A46DFF8681200F0A1
:1037600092F800286FD13068EDB2056100F088F85A
:10377000002868D1009031684A6900928B690093F3
:103780004B4600F070F9009400224FF0011100F058
:10379000A3F830B130680168CA0554D5C7F804A051
:1037A00051E030684BF0F101016100F069F8002848
:1037B00049D1308D18B1012804D100F005F900F08D
:1037C000E4F818E002283068016805D121F480612E
:1037D000016000F0B7F802E041F480610160002070
:1037E00000F046F807E000F0BAF800282BD100F00E
:1037F000AFF800F035F8308D00282BD004281FD208
:103800000128F0D00228DFF8085200944B460AD174
:1038100000F060F8002816D100F0DDF8716A087039
:10382000706A421CE5E700F055F800280BD100F063
:1038300020F94B4600F0B5F800F04DF818B9EBE769
:1038400000F08DF808B1012008E000F08DF8D2D525
:103850000069E3E700F04BF800E00220BDE8F28FDA
:10386000308D7262411E3185708D411E71857047A9
:10387000009031684A690092896900910098704708
:1038800023464A464146304600F030B906460D46CA
:103890009146984600F0C6BA606A411C6162608D2C
:1038A000411E6185208D411E21857047606A226816
:1038B00001781161606A411C6162608D411E618501
:1038C000208D7047B970002078606562A4F82A9056
:1038D000608D704700222946304600F0DFB830681E
:1038E000016821F400610160222078707047202077
:1038F00078700021B970002038707047012139704C
:1039000030680268D10770470094192301220B49DF
:10391000304600F0C3B80000A186010080841E007C
:1039200000093D0040420F000030FFFF007CFFFF18
:1039300006F13C0704467878202870470200100002
:103940000000FFFF3068026842F4006202607047C6
:1039500030680169706A0170716A4A1C70472246BA
:103960004946304600F04BB930680169706A017011
:10397000716A308D4A1C411E72623185708D411E04
:103980007185306841694A077047009031684A691B
:1039900000928B69009300980A6842F400720A60F2
:1039A000704730680169706A0170716A308D4A1C15
:1039B000411E726231850022708D411E7185009416
:1039C00070470000080001003068016821F4806140
:1039D0000160002070473068016841F400710160A7
:1039E00030680169706A0170716A308D4A1C411E2D
:1039F00072623185708D411E718532681069704721
:103A0000026842F0010202607047000002000100FB
:103A1000040001009046994600F004BA0090216825
:103A20004A690092704720680268D10703D402688F
:103A300042F0010202602068016821F40061016027
:103A400070472068016841F480710160704700226E
:103A50004FF00111204600F021B83068016841F4B0
:103A600080710160704700980A6842F480720A60B1
:103A700070473068016821F4806101607047064931
:103A8000204633E02068016841F40071016070470E
:103A9000414620466BE00000020001002DE9F041A4
:103AA000069F05460E4690461C4631022868090EC0
:103AB00001290CBF40698069304080B2B1B28842B0
:103AC0000CBF0120002040450DD114F1010FECD0B6
:103AD00000F0A8F9C01B844201D3002CE5D100F00E
:103AE00063F8012000E00020BDE8F081F8B505464C
:103AF0000E4614461F463102090E2868012919D1C5
:103B00004169314089B2B2B2914219D041694A0546
:103B100018D500F025F82A685061002105F13C0015
:103B20002963202242708170426842F004024260A0
:103B3000017013E08169314089B2B2B29142E5D19E
:103B40000020F2BD14F1010FD5D000F06BF9C01BBD
:103B5000844201D3002CCED100F026F80120F2BD22
:103B6000016841F4007101606FF48060704770B5C6
:103B700005460C46164628684169080612D42846B0
:103B800000F069F808B1012070BD14F1010FF2D006
:103B900000F048F9801B844201D3002CEBD100F0E7
:103BA00003F8F0E7002070BD00202863202105F114
:103BB0003C00002241708270416841F02001416068
:103BC0000270704770B505460C4616462868416974
:103BD000480712D4284600F03EF808B1012070BD15
:103BE00014F1010FF2D000F01DF9801B844201D3C3
:103BF000002CEBD1FFF7D8FFF0E7002070BD70B5C7
:103C000005460C461646286841694A0617D441699C
:103C1000CA060BD400F006F9801B844201D3002CA5
:103C2000F1D100F00EF841F0200104E06FF0100136
:103C3000416100F006F841600270012070BD002073
:103C400070BD00202863202105F13C000022417056
:103C500082704168704701684A6953050FD56FF457
:103C600080624A61002101633C30202242708170F1
:103C7000426842F004024260017001207047002057
:103C8000704770472DE9F04104000F4654D0464E6E
:103C9000306800F00F00B84202D200F073F84BD148
:103CA0002068424D810712D5400703D5A96841F429
:103CB000E051A9602078010703D5A86840F460406E
:103CC000A860A968A06821F0F0010143A9602178EB
:103CD000C80729D56068012802D129688A0305E050
:103CE000022818BF032803D129688A0103D423E0DE
:103CF00029688A0720D5A968890840EA8100A86058
:103D000000F090F88046A868616800F00C00B0EB05
:103D1000810F09D000F086F8A0EB080041F289314C
:103D20008842F0D303202BE0306800F00F00874278
:103D300004D200F027F801D0012021E020784107CB
:103D400005D5AA68E06822F4E0520243AA6021780F
:103D5000080706D5A968206921F4604141EAC0013D
:103D6000A96000F02FF8AA681149124BC2F30312A0
:103D7000895CC84018601048006800F059F80020BD
:103D8000BDE8F0813770316801F00F01B94270472A
:103D900008480A4A006813680949C3F38222FFE70A
:103DA000895CC84070470000003C02400038024077
:103DB0008C6600080C000020080000200838024033
:103DC000B467000830B5144C606800F00C0004289B
:103DD00002D0082802D01DE0104830BD22682068BB
:103DE0000023410202F03F0204D525680B49C5F3C8
:103DF000881003E020680A49C0F38810A1FB000185
:103E0000FFF7E8F92168C1F30141491C4900B0FB03
:103E1000F1F030BD024830BD0438024000127A0093
:103E20000024F40001484068704700BF00000020F3
:103E300038B50D4D0D4B2A7804464FF47A71186849
:103E4000B1FBF2F2B0FBF2F000F054F850B9102CD4
:103E500008D2002221464FF0FF3000F023F8AC607A
:103E6000002032BD012032BD000000200C000020E7
:103E70000901020002D4294881547047284B02F0FE
:103E80000F021A4402F8041C7047264B19684FF6BB
:103E9000FF020002114000F4E06008432249084399
:103EA0001860704770B51F4B1C68C4F302230124CF
:103EB000C3F10705052D2EBF0F2504FA05F56D1E6C
:103EC0001E1D072E34BF0023DB1E2940994004FA33
:103ED00003F3BDE870405B1E1A401143C8E70100C0
:103EE00007D4012200F01F01104B8A40400943F81B
:103EF0002020704710B5401EB0F1807F01D3012013
:103F000010BD0B4C60600F214FF0FF30FFF7B0FF8A
:103F10000021A16007202060002010BD00E400E027
:103F200018ED00E00CED00E00000FA0500E100E013
:103F300010E000E070B5044600250CB9012070BD0A
:103F400004F13006306920B9204600F0ECFA7561C2
:103F500035733069C10600F192803069DFF82015B1
:103F600020F4885040F002003061086820F44030AE
:103F700008600A68606802430A602068416821F4AA
:103F80008071416020684168226941EA02214160F4
:103F90002068416821F04071416021684A68A0684A
:103FA00002434A602068816821F4006181602168D1
:103FB0008A68E06802438A602068A16ADFF8C42446
:103FC0009142816821F0706181600CD021688A681B
:103FD000A06A02438A6000F05BF821688A68E06AA0
:103FE00002438A6001E000F053F82068816821F004
:103FF000020100F049F8227E41EA4201816094F812
:1040000020002168002848680FD040F40060486014
:104010002068416821F46041416020684168626A1B
:10402000521E41EA4231416002E020F400604860E3
:104030002068C16A21F47001C1622068C16AE26926
:10404000521E41EA0251C1622068816821F4007168
:1040500000F01AF8327841EA422100F015F821F414
:10406000806100F011F8626941EA82218160756126
:10407000316921F0020141F00101316100E00125C7
:1040800000203073284670BD8160206881687047C9
:104090002068816821F0405181607047126802F009
:1040A0001F02102A7047016841F08041016070478B
:1040B000816841F080418160704738B504462168CD
:1040C0000A684868920729D5800627D5226CD00651
:1040D00003D4226C42F400722264886810F0405FBE
:1040E00004BF207E002812D1C86A10F4700F02D0DD
:1040F000886842050BD4486820F020004860206C96
:1041000020F480702064206CC10400F066F8204622
:1041100000F00AFA21686FF01200086021680A684E
:104120004868520730D500062ED5226CD00603D43D
:10413000226C42F400522264886810F4401F1CD1A3
:10414000886B10F4401F02D08868420515D4486877
:10415000420512D4886810F0405F04BF207E00281A
:104160000BD1486820F080004860206C20F480501B
:104170002064206CC10500F030F8204600F00AFAF7
:1041800021686FF00C000860206802684168D2075F
:104190000FD549060DD50068C1070AD5206C40F43B
:1041A00080302064204600F0F6F921686FF00100AD
:1041B000086020680268416892060DD549010BD558
:1041C000626C42F0020262646FF0200505602046D6
:1041D00000F0E2F92068056031BD03D4206C40F0A6
:1041E000010020647047F8B50446002004F13C0348
:1041F00000901D78012D01D10220F2BD0120187020
:1042000020688568EE070DD48568A44E45F0010549
:104210008560A3480568B5FBF6F606EB46060096F2
:1042200000F025F92568A868C60761D55F68994838
:10423000074047F480775F606868450505D5586892
:1042400020F4005040F4805058605868C50446BFC0
:10425000986820F006000020986000251D70A36B70
:104260000FF24120D863A36B0FF2A1201864A36B57
:104270000FF2A120D8646FF0220025682860206822
:10428000436843F08063436013462068856845F4C3
:10429000807585600A46206800F14C01A06B00F033
:1042A000F4F92068764A7C49136813F01F0F16D181
:1042B00088420DD07449884204D1126812F01F0F51
:1042C00016D105E07149884212D1FFF7E7FE0FD2FF
:1042D000816811F0405F0BD1FFF7EAFE08E08842E9
:1042E00002BF6B48016811F0405F01D1FFF7DBFEB0
:1042F0000020F2BD38B5054605F13C0400202178C8
:10430000012901D1022032BD0121217029688A686A
:10431000520852008A6029688A68D30711D48868D5
:1043200020F480708860A86B00F0E0F929684A6882
:1043300022F080624A60616821F4885141F00101F5
:1043400061600021217032BD78B5024600200090E6
:1043500092F83C30012B01D1022072BD012082F87D
:104360003C0007240B6810680A2B12D30A3BC5686F
:1043700003EB43039C4025EA0404C460C3680D6852
:104380008C68A5F10A0606EB4606B4402343C360D9
:104390000FE0056903EB430304FA03F325EA030383
:1043A000036103690D688C6805EB4505AC40234348
:1043B00003611F244B68072B0CD25B1E456B00F07A
:1043C00050F84463436B4D680C886E1E00F044F84F
:1043D00043631BE00D2B0CD2DB1F056B00F041F893
:1043E0000463036B4D680C88EE1F00F035F803631F
:1043F0000CE00D3BC56A00F034F8C462C36A4D6836
:104400000C88A5F10D0600F027F8C362224B9842F4
:104410001DD10C681A48122C03D1036843F48003A1
:1044200003600B68102B18BF112B10D1036843F4E5
:10443000000303600868102809D11949174C0B685C
:10444000B3FBF4F40A204443009400F010F8002178
:1044500082F83C10002072BD06EB8606B440234370
:10446000704703EB83039C4025EA0404704702E095
:104470000098401E009000980028F9D17047000075
:10448000042301400100000F0021014000220140EF
:1044900008200140FEF9FFFF0020014040420F00CC
:1044A0000C000020816B0A6C12F0500F24D1086CB4
:1044B00040F4007008640A68906810F0405F04BF20
:1044C000087E002815D1D06A10F4700F02D09068D1
:1044D00043050ED4506820F020005060086C20F492
:1044E00080700864086CC20403D4086C40F00100BA
:1044F0000864084600F018B80A6CD30644BF0846A2
:1045000000F04AB8896BCA6C10470000806B00F05D
:1045100031BA0000806B40210164426C42F0040219
:10452000426400F039B8704710B51348FFF7E2FE57
:1045300018B12F21114800F01FFA114911480A78CB
:10454000012A07D1104A1388038154884481928834
:1045500082810CE00D490A78012A0BD10C4AD388DC
:10456000038014894480538983809289C28000200B
:10457000087010BD00BF10BD90050020D864000871
:104580006C060020800600207006002058060020DF
:104590005C060020704770477047000070B5044605
:1045A000FFF740FC06460CB9012070BD04F134054C
:1045B00000202870022169702068026852085200A9
:1045C000026022681068C1070AD5FFF72BFC801B28
:1045D0000628F6D32020286203216970032070BDCD
:1045E0001368DFF8080361680340A0680B43E168C3
:1045F000034320690B4361690343A0690B43E169ED
:104600000343206A0B43616A0343042903D1E16A2F
:10461000206B01430B43136023685A69606AD20818
:10462000042840EAC2020AD1A66AE16A324331B1E3
:10463000A06988B9002E18BF022E1FD016D35A6168
:10464000204600F07FF9A96A3F228A40826000205C
:1046500028620121697070BDB0F5005F0AD1032E98
:10466000EDD8DFE806F00D0B0D03E8E7B1F1C07FF0
:10467000E5D105E0022E03D9F61EE0D1C801DED552
:10468000402129620120687070BDF8B5044604F12C
:10469000340600253078776A012801D10220F2BD66
:1046A00001203070707801281CD1022070703562B2
:1046B000204600F037F9B06A3F2101FA00F0B860F7
:1046C0002068016841F016010160F06820B120689F
:1046D000016841F0080101602068016841F00101B2
:1046E000016001E0357002252846F2BDF8B50446A8
:1046F00004F134056E6AFFF795FB074668780228D7
:1047000005D080212962002028700120F2BD206898
:10471000016821F01601016000F0F1F8E868002856
:1047200004BF6869002801D000F0F5F800F0EDF84A
:1047300020680168CA070CD5FFF774FBC01B062868
:10474000F6D3202028620021297003226A700320FA
:10475000F2BDA96A3F208840B06001220020287085
:104760006A70F2BD2DE9FC41044604F134060020D4
:104770005F4900904FF41650776A0A683D68B2FBB3
:10478000F0F8B06A082100F0B6F80ED02068026890
:1047900053070AD5026822F004020260B06A814021
:1047A000B960316A41F001013162B06A25FA00F165
:1047B000CA070BD521684A69110607D5012202FAFA
:1047C00000F0B860306A40F002003062042100F06E
:1047D00091F808D021680A68930704D5B860306A58
:1047E00040F004003062102100F084F81BD02168F2
:1047F0000A68130717D5B860206801684A0307D50F
:10480000006801030BD5716969B1204688470AE049
:104810000168CA0503D4016821F008010160F1684C
:1048200009B120468847B06A202100F064F83FD0E3
:1048300021680A68D3063BD5B860206871780529DD
:104840001CD1026822F01602026000F058F8F068ED
:10485000002804BF7069002801D000F05CF83F22F6
:10486000B06A8240BA600021317001227270F16931
:10487000002939D02046BDE8FC41084701684A03B9
:1048800007D5006801030FD4316989B120468847F4
:104890000EE00168CA0507D4016821F0100101602B
:1048A0000020307001227270B16809B1204688473B
:1048B000306AC8B1306AC10710D50520707000F0A9
:1048C00024F80098401C8045009003D320680168BC
:1048D000CA07F6D40020307001217170B16919B196
:1048E0002046BDE8FC410847BDE8F3813F8010F059
:1048F0000C000020B06A01FA00F005427047206801
:10490000416921F0800141617047206801684908D0
:104910004900016070472068016821F008010160CA
:104920007047000030B50468256825F480252560AF
:1049300063608068402802D1A260E16030BDA16060
:10494000E26030BD30B5016808A401F0FF02103A02
:104950001823B2FBF3F2890A8902A55CC565042A13
:1049600028BF091D8165084630BD000000061016ED
:10497000000610167047000010B50C4600F00CF849
:104980004FEA0401BDE8104001A000F005B80000A6
:104990000A25640A000000000EB4C0B5024603A850
:1049A00000210190009101AB0121044878440C30B2
:1049B000FCF7D4FE06BC5DF810FB00BFBB1D000079
:1049C0002DE9F843040016D02078DFF8F462C1071F
:1049D00013D5B06800F00C00042807D0B06800F0D0
:1049E0000C0008283DD1706841023AD53068810337
:1049F00003D56068002800F05E812078B14F810700
:104A000019D5B06810F00C0F07D0B06800F00C009A
:104A100008285BD17068410258D43068810703D5FB
:104A2000E068012840F047813168206921F0F801F1
:104A300041EAC00131602178080779D56069A2494F
:104A4000002868D001220A60FFF7ECF90546706F74
:104A500081076DD4FFF7E6F9401B0228F7D9032040
:104A60002CE16068B0F5803F04D1306840F48030BC
:104A7000306011E0B0F5A02F306806D140F48020FE
:104A80003060316841F4803105E020F480303060DE
:104A9000316821F480213160606858B1FFF7C2F9B4
:104AA000054630688103A8D4FFF7BCF9401B652890
:104AB000F7D3D4E7FFF7B6F90546306881039CD5F4
:104AC000FFF7B0F9401B6528F7D3C8E7E068A8B145
:104AD00001213960FFF7A6F905463068810705D442
:104AE000FFF7A0F9401B0228F7D9B8E73068216921
:104AF00020F0F80040EAC10030609CE73860FFF722
:104B000091F905463168880795D5FFF78BF9401B69
:104B10000228F7D9A3E70860FFF784F90546706F0C
:104B2000810705D5FFF77EF9401B0228F7D996E7E4
:104B3000207841075FD5306C0025C1000AD400956C
:104B40000125316C41F080513164306C00F08050AF
:104B500000900098DFF87481D8F80000C10513D4E4
:104B6000D8F8000040F48070C8F80000FFF75AF948
:104B70008146D8F80000C10506D4FFF753F9A0EB31
:104B800009000228F5D96AE7A068012805D00528A0
:104B9000306F06D140F004003067306F40F0010004
:104BA00005E0400840003067306F20F004003067B7
:104BB00041F28938A06860B1FFF734F98146306F5F
:104BC000810713D4FFF72EF9A0EB09004045F6D377
:104BD00045E7FFF727F98146306F810706D5FFF7D4
:104BE00021F9A0EB09004045F6D338E71DB1306C40
:104BF00020F080503064A06900285ED0B16801F0D8
:104C00000C0108293AD002282AD100203866FFF783
:104C100009F905463068810105D5FFF703F9401B06
:104C20000228F7D91BE7E069216A626A0843A16A92
:104C3000490840EA8210491E40EA0140E16A40EA20
:104C40000160706001203866FFF7ECF804463068B8
:104C5000810132D4FFF7E6F8001B0228F7D9FEE6FF
:104C600000203866FFF7DEF804463068810124D55D
:104C7000FFF7D8F8001B0228F7D9F0E601281AD070
:104C8000B068E26900F48001914202BF00F03F0188
:104C9000226A91420FD147F6C071626A0140914287
:104CA00002BF00F44031A26A914202BF00F070607E
:104CB000E16A884201D0012000E00020BDE8F283D3
:104CC0000038024000004742800E4742007000401A
:104CD00038B5040025D094F8200010B9204600F023
:104CE0002AF92068016821F002010160FFF79AF8B3
:104CF0000546206841688A0705D5FFF793F8401BF1
:104D00000B28F6D30BE000F0F5F805462068416863
:104D1000CA0708D4FFF786F8401B0B28F6D300F02B
:104D2000E1F8012032BD217E012904D1026842F060
:104D30008002026003E0016821F080010160607E72
:104D400000F03DF80CBF41F0400121F0400101604E
:104D5000A07E00F034F80CBF41F0200121F02001CA
:104D60000160E07E00F02BF80CBF21F0100141F053
:104D700010010160207F00F022F80CBF41F0080113
:104D800021F008010160607F00F019F80CBF41F0CC
:104D9000040121F004010160A268E0682169024376
:104DA00060690A43616802432068491E0A43C26180
:104DB00000216162012084F82000002032BD01281A
:104DC000206801687047F0B590F82020012A18BFCC
:104DD000022A54D14A4A106840F00100106013685A
:104DE00023F47C53136010684B6A40EA0320106080
:104DF00001200B7D03F01F0300FA03F3D069DC43AD
:104E00002040D0613F4800F5117500F51076C86963
:104E100058B9D0682040D060CF6800F034F80F68EF
:104E2000C7EA004C486945F830C0C86901280BD171
:104E3000D0681843D0600F6800F025F8CE684F693D
:104E4000C6EA004045F837008869002850680CBF62
:104E500020401843506008690028506907BF04408B
:104E6000546118435061086A012802D1D069034394
:104E7000D36100201168490849001160F0BD416A02
:104E800041F4802140E04868D1F814C0C0EA0747E7
:104E900046F83C708868704738B5044694F820009E
:104EA000012819D1022184F82010206802685208D4
:104EB00052000260FEF7B6FF054620684168C80749
:104EC00007D5FEF7AFFF401B0B28F6D300F00AF81A
:104ED00006E00020606232BD606A40F4002060623B
:104EE000012032BD606A40F400306062052184F820
:104EF00020107047016841F001010160FEF792BF88
:104F0000006600400064004041620120F0BD416A3B
:104F100041F4802141620120704790F82020012A4D
:104F200018BF022A03D100684269114300E0EEE78E
:104F3000416100207047704738B5040001D101205D
:104F400032BD00F024F818B900F01DF800F01AF98D
:104F50000FE00068C16841F00101C160816801F0A3
:104F60000701062903D0016841F00101016000201A
:104F7000704702206870211D206800F069F8012048
:104F80006870002032BD002129702046704704F16E
:104F90003C056878704738B500F04EF801D1022022
:104FA00032BD0120207002226270DFF83C012A68C5
:104FB0009368034093600868020018BF10282DD042
:104FC000202818BF302829D0402823D0502816D0B8
:104FD000602818D0702803D0B0F5005F07D021E01A
:104FE00000F025F82868816841F0770105E000F0BD
:104FF0001EF82868816841F48041816012E000F069
:1050000012F850210BE0CA684968286800F093F84C
:10501000602104E000F007F8402100E00146286824
:1050200000F09BF80EE0CA684968286874E0CB6815
:105030004A688968286898E0054605F13C042078AC
:10504000012870470120607000212170002032BDCE
:10505000F0B5264C0568264B264E274FDFF89CC03E
:10506000A04218BFB0F1804F07D0604518BFB842CA
:1050700003D0B04218BF98420DD14A6825F07005A0
:105080001543A04218BFB0F1804F17D060451CBF38
:10509000B842B04212D098421CBF194A90420DD07B
:1050A000184EB0421CBF184A904207D0174EB0426B
:1050B0001FBF174A9042174EB04203D1CA6825F469
:1050C000407515434A6925F0800515430560A042E7
:1050D0008D68C5620A68826212BF984209690163DD
:1050E00001224261F0BD00008800FFFF0000014086
:1050F00000040140000C0040000800400004004093
:1051000000400140004401400048014000180040B8
:10511000001C00400020004010B5036A046A6408C7
:105120006400046223F00A03846924F0F00444EA72
:105130000214846123E010B5036A23F010030362B4
:105140008369046A23F4704343EA023324F0A00421
:10515000836144EA0114046210BD826822F0700287
:10516000114341F007018160704710B5846824F451
:105170007F442143114341EA0321816010BD19435B
:10518000016210BD80B50021009124490A6842F0F7
:1051900001020A60096801F00101009100990068AC
:1051A000B0F1804F09D1002200211C20FEF77AFEC9
:1051B000BDE802401C20FEF792BE01BD4FF08040CA
:1051C00038B5174C174D20604AF20F4141F270700C
:1051D0000022E0606160A2602261A26186B0204688
:1051E000FFF7AAFE18B13E212846FFF7C5FB4FF492
:1051F0008050029002A92046FFF7CDFE00210091C9
:1052000001912046694600F00FF818B14821284660
:10521000FFF7B2FB002007B030BD0000403802406D
:10522000D80500201865000870B500F13C031A7815
:10523000012A01D1022070BD01221A7002245C7083
:1052400005686E68AC680A6826F0700616436E60E2
:1052500002681148824218BFB2F1804F11D00F4846
:1052600082421CBF0E4DAA420BD00E4882421CBF88
:105270000D4DAA4205D00D4882421CBF0C4DAA42DA
:1052800004D1486824F080040443946001215970DB
:105290000020187070BD00000000014000040040B4
:1052A00000080040000C00400004014000400140A4
:1052B000001800402DE9F84F0D46002669496A4A5A
:1052C0000F23044601202F68B04000EA07088045FC
:1052D00040F0C1804FEA460C032707FA0CF76FEA4B
:1052E000070E6F68012F18BF022F03D0112F18BFB0
:1052F000122F12D1A768D5F80C900EEA070709FA09
:105300000CF949EA0707A760676827EA00006F6899
:10531000C7F30017B74038436060E068AF680EEA33
:10532000000007FA0CF73843E060B0006F68022F06
:1053300018BF122F12D1F70804EB870700F01C09E1
:10534000D7F820A003FA09FB2AEA0B0AD5F810B017
:105350000BFA09F949EA0A09C7F8209027680EEA0A
:10536000070E2F7907F0030707FA0CF747EA0E0735
:1053700027606F68FF006ED5002700974FEA960CF4
:10538000176847F48047176000F00C00176807F4AF
:105390008047009703FA00FE009F344F57F82C70A7
:1053A00027EA0E0E324FBC4208BF002722D0314FF1
:1053B000BC4208BF01271DD02F4FBC4208BF0227A7
:1053C00018D02E4FBC4208BF032713D02C4FBC422D
:1053D00008BF04270ED02B4FBC4208BF052709D0B9
:1053E000294FBC4208BF062704D0284FBC420CBF3F
:1053F0000727082707FA00F01C4F40EA0E0047F87D
:105400002C006FEA08000F6800EA070C6F68FF03C2
:1054100048BF48EA0C0CC1F800C04F6800EA070C0E
:105420006F68BF0348BF48EA0C0CC1F804C08F681E
:1054300000EA070C6F68FF0248BF48EA0C0CC1F88D
:1054400008C0CF6800EA070C6868800248BF48EAD5
:105450000C0CC1F80CC0761C0F2E7FF633AFBDE8E4
:10546000F18F0000003C0140443802400838014000
:10547000000002400004024000080240000C02400C
:10548000001002400014024000180240001C0240BC
:10549000F8B58AB010220021684600F0C2F8544CDA
:1054A0005448554F20600021012020612076A160E2
:1054B000002084F82000E162E16004F130064F48EA
:1054C000A06201210720E061317061614FF4403535
:1054D00065601422002105A800F0A3F800200490C4
:1054E00000224748416941F480714161416901F4FA
:1054F0008071049104990492FE21036843F0010332
:1055000003600322006800F00100049004983D4805
:10551000059106920021079105A9FFF7CBFE3A48B5
:10552000386000217960F9604FF480504FF4806159
:10553000786139614FF4807000224FF48041F86146
:10554000BA60B9617A623D623846FFF727F82F4D9D
:1055500010B14A2100F05CF8B760BC630022002162
:105560001220FEF79FFC1220FEF7B9FC2046FEF742
:10557000E1FC10B1722100F04BF801200090019085
:105580000722029269462046FEF7DEFE10B17B211B
:1055900000F03EF8022100F03EF810B1832100F047
:1055A00037F8032100F037F810B18B2100F030F804
:1055B000042100F030F810B1932100F029F8052102
:1055C00000F029F810B19B2100F022F8062100F02C
:1055D00022F810B1A32100F01BF8072100F01BF8FE
:1055E00010B1AB2100F014F800200BB0F0BD0000AA
:1055F0009005002000200140E80300200100000F7A
:10560000303802400000024010640240C8650008C3
:105610002846FFF7B1B90091019120466946FEF78F
:1056200093BE10B5044610460A460146204600F0D7
:1056300003F8204610BD000062F30F2262F31F4200
:10564000401810F0030308D0C91A1FD3DB0748BF66
:1056500000F8012D28BF20F8022D130030B41446A5
:105660001546103928BF20E93C00FAD8490728BF61
:1056700020E90C0048BF40F8042D890028BF20F81D
:10568000022D48BF00F8012D30BC7047C91818BF63
:1056900000F8012DCB0728BF00F8012D704700004E
:1056A00010B54B4C4B4B236086B01422002101A84F
:1056B000FFF7B7FF0021009100224748016941F040
:1056C00000710161016901F000710091009900927F
:1056D0000321036843F0080303600222006800F01E
:1056E0000800009000983D4801910292002103912A
:1056F000032209210591049201A9FFF7DBFD002295
:1057000000211420FEF7CEFB1420FEF7E8FB002258
:1057100000211520FEF7C6FB1520FEF7E0FB002256
:1057200000211620FEF7BEFB1620FEF7D8FB012154
:10573000E17600204FF08041A16060760621616033
:10574000A0762077E0604FF4202121614FF4801093
:1057500060610021217661772046FFF7B9FA18B120
:105760006F211F48FFF708F9002006B010BD80B573
:105770008AB00120002108900591049100910191C7
:10578000029103910691079069461148FFF71BFBB0
:1057900018B18A211248FFF7EFF800200BB000BDC6
:1057A00038B50B4D40F213412846FFF7B6FB0C4CC1
:1057B00018B194212046FFF7DFF82846FFF76CFB6D
:1057C00018B199212046FFF7D7F8002032BD00001C
:1057D000180600200064004030380240000C0240EF
:1057E0000066000810B586B004461422002101A806
:1057F000FFF717FF2268424B424843499A420ED1B5
:10580000002200920B6943F400130B6100230A6924
:1058100002F400120092009A0093C02211E03B4B68
:105820009A4223D1002200920B6943F480030B615A
:1058300000230A6902F480020092009A00934FF458
:1058400040620C6844F002040C60096801F0020137
:1058500000910099019211230122029303920223E5
:1058600004220493059201A9FFF724FD002006B04D
:1058700010BD1CB500F02FF8254C016841F4001153
:10588000016000681E4900F4001000F02AF838B9E1
:105890002046FDF7DBFD18B160211E48FFF76CF8CC
:1058A000002016BD1CB500F016F81B4C016841F431
:1058B000800101600068154900F4800000F011F8D3
:1058C00038B92046FDF7C2FD18B17B211148FFF71A
:1058D00053F8002016BD002000904FF480420F487E
:1058E0007047009000980E4821606060002122619E
:1058F000E160A1616161A160E1612162204671E71F
:10590000005400400004024030380240005800407B
:1059100048040020386600089C04002040380240FB
:10592000A0860100F8B50546444C287810F0050F14
:1059300020D0434E00203060FEF774FA07462168FD
:10594000080106D5FEF76EFAC01B0228F7D903201E
:10595000F2BDA968686800F069F83260FEF762FA83
:1059600006462068010105D4FEF75CFA801B022878
:10597000F7D9ECE72878810756D500200090216CF4
:10598000304F41F080512164206C00F08050009035
:105990000098396841F480713960FEF743FA064691
:1059A0003868C10505D4FEF73DFA801B0228F7D9F7
:1059B000CDE7206F10F440701EBFE96801F440711C
:1059C000884219D0206F204901220A6000230B6011
:1059D00020F440702067206FC1070DD5FEF722FA32
:1059E0000646206F810707D4FEF71CFA801B41F2A0
:1059F00089318842F5D3AAE7E96801F44070B0F52F
:105A0000407F07D1A268114822F4F81201401143E7
:105A1000A16003E0A06820F4F810A060206FE9689E
:105A2000C1F30B01084320670020F2BD090741EADA
:105A300080110748016001227047000000380240D1
:105A40006800474200700040400E4742FFFCFF0FD5
:105A50008438024010B596B0302200210AA8FFF722
:105A6000E0FD1422002101A8FFF7DBFD1022002138
:105A700006A8FFF7D6FD002000902C4C2C480168AA
:105A800041F0805101600021006800F080500090DA
:105A90000098284800910921026842F4804202607F
:105AA0004FF48032006800F48040009000980A9122
:105AB0000B9201210F9102224FF48001109211915B
:105AC0000422A82112921391022207211492159107
:105AD0000AA8FEF775FF18B135212046FEF74CFFE6
